{
  "address": "0xE0A2a6A60d66Fb2559215C16A6622603e0C89000",
  "abi": [
    {
      "inputs": [],
      "stateMutability": "nonpayable",
      "type": "constructor"
    },
    {
      "inputs": [
        {
          "internalType": "address",
          "name": "sender",
          "type": "address"
        },
        {
          "internalType": "uint256",
          "name": "tokenId",
          "type": "uint256"
        },
        {
          "internalType": "address",
          "name": "owner",
          "type": "address"
        }
      ],
      "name": "ERC721IncorrectOwner",
      "type": "error"
    },
    {
      "inputs": [
        {
          "internalType": "address",
          "name": "operator",
          "type": "address"
        },
        {
          "internalType": "uint256",
          "name": "tokenId",
          "type": "uint256"
        }
      ],
      "name": "ERC721InsufficientApproval",
      "type": "error"
    },
    {
      "inputs": [
        {
          "internalType": "address",
          "name": "approver",
          "type": "address"
        }
      ],
      "name": "ERC721InvalidApprover",
      "type": "error"
    },
    {
      "inputs": [
        {
          "internalType": "address",
          "name": "operator",
          "type": "address"
        }
      ],
      "name": "ERC721InvalidOperator",
      "type": "error"
    },
    {
      "inputs": [
        {
          "internalType": "address",
          "name": "owner",
          "type": "address"
        }
      ],
      "name": "ERC721InvalidOwner",
      "type": "error"
    },
    {
      "inputs": [
        {
          "internalType": "address",
          "name": "receiver",
          "type": "address"
        }
      ],
      "name": "ERC721InvalidReceiver",
      "type": "error"
    },
    {
      "inputs": [
        {
          "internalType": "address",
          "name": "sender",
          "type": "address"
        }
      ],
      "name": "ERC721InvalidSender",
      "type": "error"
    },
    {
      "inputs": [
        {
          "internalType": "uint256",
          "name": "tokenId",
          "type": "uint256"
        }
      ],
      "name": "ERC721NonexistentToken",
      "type": "error"
    },
    {
      "inputs": [],
      "name": "EventAlreadyEnded",
      "type": "error"
    },
    {
      "inputs": [
        {
          "internalType": "uint256",
          "name": "eventId",
          "type": "uint256"
        }
      ],
      "name": "EventNotActive",
      "type": "error"
    },
    {
      "inputs": [],
      "name": "EventNotFound",
      "type": "error"
    },
    {
      "inputs": [],
      "name": "EventSoldOut",
      "type": "error"
    },
    {
      "inputs": [],
      "name": "InsufficientPayment",
      "type": "error"
    },
    {
      "inputs": [
        {
          "internalType": "uint256",
          "name": "eventId",
          "type": "uint256"
        }
      ],
      "name": "InvalidEventId",
      "type": "error"
    },
    {
      "inputs": [],
      "name": "InvalidHash",
      "type": "error"
    },
    {
      "inputs": [
        {
          "internalType": "address",
          "name": "owner",
          "type": "address"
        }
      ],
      "name": "OwnableInvalidOwner",
      "type": "error"
    },
    {
      "inputs": [
        {
          "internalType": "address",
          "name": "account",
          "type": "address"
        }
      ],
      "name": "OwnableUnauthorizedAccount",
      "type": "error"
    },
    {
      "inputs": [],
      "name": "ReentrancyGuardReentrantCall",
      "type": "error"
    },
    {
      "inputs": [],
      "name": "RefundFailed",
      "type": "error"
    },
    {
      "inputs": [
        {
          "internalType": "bytes32",
          "name": "hash2",
          "type": "bytes32"
        }
      ],
      "name": "TicketAlreadyExists",
      "type": "error"
    },
    {
      "inputs": [],
      "name": "UnauthorizedAccess",
      "type": "error"
    },
    {
      "anonymous": false,
      "inputs": [
        {
          "indexed": true,
          "internalType": "address",
          "name": "owner",
          "type": "address"
        },
        {
          "indexed": true,
          "internalType": "address",
          "name": "approved",
          "type": "address"
        },
        {
          "indexed": true,
          "internalType": "uint256",
          "name": "tokenId",
          "type": "uint256"
        }
      ],
      "name": "Approval",
      "type": "event"
    },
    {
      "anonymous": false,
      "inputs": [
        {
          "indexed": true,
          "internalType": "address",
          "name": "owner",
          "type": "address"
        },
        {
          "indexed": true,
          "internalType": "address",
          "name": "operator",
          "type": "address"
        },
        {
          "indexed": false,
          "internalType": "bool",
          "name": "approved",
          "type": "bool"
        }
      ],
      "name": "ApprovalForAll",
      "type": "event"
    },
    {
      "anonymous": false,
      "inputs": [
        {
          "indexed": true,
          "internalType": "uint256",
          "name": "eventId",
          "type": "uint256"
        }
      ],
      "name": "EventCancelled",
      "type": "event"
    },
    {
      "anonymous": false,
      "inputs": [
        {
          "indexed": true,
          "internalType": "uint256",
          "name": "eventId",
          "type": "uint256"
        }
      ],
      "name": "EventCompleted",
      "type": "event"
    },
    {
      "anonymous": false,
      "inputs": [
        {
          "indexed": true,
          "internalType": "uint256",
          "name": "eventId",
          "type": "uint256"
        },
        {
          "indexed": true,
          "internalType": "address",
          "name": "organizer",
          "type": "address"
        },
        {
          "indexed": false,
          "internalType": "string",
          "name": "name",
          "type": "string"
        },
        {
          "indexed": false,
          "internalType": "uint256",
          "name": "startTime",
          "type": "uint256"
        },
        {
          "indexed": false,
          "internalType": "uint256",
          "name": "endTime",
          "type": "uint256"
        },
        {
          "indexed": false,
          "internalType": "uint256",
          "name": "ticketPrice",
          "type": "uint256"
        },
        {
          "indexed": false,
          "internalType": "uint256",
          "name": "maxAttendees",
          "type": "uint256"
        }
      ],
      "name": "EventCreated",
      "type": "event"
    },
    {
      "anonymous": false,
      "inputs": [
        {
          "indexed": true,
          "internalType": "address",
          "name": "previousOwner",
          "type": "address"
        },
        {
          "indexed": true,
          "internalType": "address",
          "name": "newOwner",
          "type": "address"
        }
      ],
      "name": "OwnershipTransferred",
      "type": "event"
    },
    {
      "anonymous": false,
      "inputs": [
        {
          "indexed": true,
          "internalType": "address",
          "name": "to",
          "type": "address"
        },
        {
          "indexed": true,
          "internalType": "uint256",
          "name": "eventId",
          "type": "uint256"
        },
        {
          "indexed": false,
          "internalType": "uint256",
          "name": "amount",
          "type": "uint256"
        }
      ],
      "name": "RefundIssued",
      "type": "event"
    },
    {
      "anonymous": false,
      "inputs": [
        {
          "indexed": true,
          "internalType": "uint256",
          "name": "tokenId",
          "type": "uint256"
        },
        {
          "indexed": true,
          "internalType": "uint256",
          "name": "eventId",
          "type": "uint256"
        }
      ],
      "name": "TicketBurned",
      "type": "event"
    },
    {
      "anonymous": false,
      "inputs": [
        {
          "indexed": true,
          "internalType": "uint256",
          "name": "tokenId",
          "type": "uint256"
        },
        {
          "indexed": true,
          "internalType": "uint256",
          "name": "eventId",
          "type": "uint256"
        },
        {
          "indexed": true,
          "internalType": "bytes32",
          "name": "hash1",
          "type": "bytes32"
        }
      ],
      "name": "TicketIssued",
      "type": "event"
    },
    {
      "anonymous": false,
      "inputs": [
        {
          "indexed": true,
          "internalType": "address",
          "name": "from",
          "type": "address"
        },
        {
          "indexed": true,
          "internalType": "address",
          "name": "to",
          "type": "address"
        },
        {
          "indexed": true,
          "internalType": "uint256",
          "name": "tokenId",
          "type": "uint256"
        }
      ],
      "name": "Transfer",
      "type": "event"
    },
    {
      "inputs": [
        {
          "internalType": "address",
          "name": "to",
          "type": "address"
        },
        {
          "internalType": "uint256",
          "name": "tokenId",
          "type": "uint256"
        }
      ],
      "name": "approve",
      "outputs": [],
      "stateMutability": "nonpayable",
      "type": "function"
    },
    {
      "inputs": [
        {
          "internalType": "address",
          "name": "owner",
          "type": "address"
        }
      ],
      "name": "balanceOf",
      "outputs": [
        {
          "internalType": "uint256",
          "name": "",
          "type": "uint256"
        }
      ],
      "stateMutability": "view",
      "type": "function"
    },
    {
      "inputs": [
        {
          "internalType": "uint256",
          "name": "tokenId",
          "type": "uint256"
        }
      ],
      "name": "burnTicket",
      "outputs": [],
      "stateMutability": "nonpayable",
      "type": "function"
    },
    {
      "inputs": [
        {
          "internalType": "uint256",
          "name": "eventId",
          "type": "uint256"
        }
      ],
      "name": "cancelEvent",
      "outputs": [],
      "stateMutability": "nonpayable",
      "type": "function"
    },
    {
      "inputs": [
        {
          "internalType": "uint256",
          "name": "eventId",
          "type": "uint256"
        }
      ],
      "name": "completeEvent",
      "outputs": [],
      "stateMutability": "nonpayable",
      "type": "function"
    },
    {
      "inputs": [
        {
          "internalType": "string",
          "name": "name",
          "type": "string"
        },
        {
          "internalType": "string",
          "name": "description",
          "type": "string"
        },
        {
          "internalType": "string",
          "name": "imageCID",
          "type": "string"
        },
        {
          "internalType": "uint256",
          "name": "startTime",
          "type": "uint256"
        },
        {
          "internalType": "uint256",
          "name": "endTime",
          "type": "uint256"
        },
        {
          "internalType": "string",
          "name": "venueName",
          "type": "string"
        },
        {
          "internalType": "string",
          "name": "streetAddress",
          "type": "string"
        },
        {
          "internalType": "string",
          "name": "city",
          "type": "string"
        },
        {
          "internalType": "string",
          "name": "state",
          "type": "string"
        },
        {
          "internalType": "string",
          "name": "postalCode",
          "type": "string"
        },
        {
          "internalType": "string",
          "name": "country",
          "type": "string"
        },
        {
          "internalType": "bool",
          "name": "isOnline",
          "type": "bool"
        },
        {
          "internalType": "uint256",
          "name": "ticketPrice",
          "type": "uint256"
        },
        {
          "internalType": "uint256",
          "name": "maxAttendees",
          "type": "uint256"
        },
        {
          "internalType": "bool",
          "name": "isPrivate",
          "type": "bool"
        }
      ],
      "name": "createEvent",
      "outputs": [
        {
          "internalType": "uint256",
          "name": "",
          "type": "uint256"
        }
      ],
      "stateMutability": "nonpayable",
      "type": "function"
    },
    {
      "inputs": [
        {
          "internalType": "uint256",
          "name": "",
          "type": "uint256"
        }
      ],
      "name": "events",
      "outputs": [
        {
          "internalType": "uint256",
          "name": "eventId",
          "type": "uint256"
        },
        {
          "internalType": "address",
          "name": "organizer",
          "type": "address"
        },
        {
          "internalType": "string",
          "name": "name",
          "type": "string"
        },
        {
          "internalType": "string",
          "name": "description",
          "type": "string"
        },
        {
          "internalType": "string",
          "name": "imageCID",
          "type": "string"
        },
        {
          "internalType": "uint256",
          "name": "startTime",
          "type": "uint256"
        },
        {
          "internalType": "uint256",
          "name": "endTime",
          "type": "uint256"
        },
        {
          "internalType": "string",
          "name": "venueName",
          "type": "string"
        },
        {
          "internalType": "string",
          "name": "streetAddress",
          "type": "string"
        },
        {
          "internalType": "string",
          "name": "city",
          "type": "string"
        },
        {
          "internalType": "string",
          "name": "state",
          "type": "string"
        },
        {
          "internalType": "string",
          "name": "postalCode",
          "type": "string"
        },
        {
          "internalType": "string",
          "name": "country",
          "type": "string"
        },
        {
          "internalType": "bool",
          "name": "isOnline",
          "type": "bool"
        },
        {
          "internalType": "uint256",
          "name": "ticketPrice",
          "type": "uint256"
        },
        {
          "internalType": "uint256",
          "name": "maxAttendees",
          "type": "uint256"
        },
        {
          "internalType": "uint256",
          "name": "ticketsSold",
          "type": "uint256"
        },
        {
          "internalType": "enum MergedContract.EventStatus",
          "name": "status",
          "type": "uint8"
        },
        {
          "internalType": "bool",
          "name": "isPrivate",
          "type": "bool"
        }
      ],
      "stateMutability": "view",
      "type": "function"
    },
    {
      "inputs": [
        {
          "internalType": "uint256",
          "name": "tokenId",
          "type": "uint256"
        }
      ],
      "name": "getApproved",
      "outputs": [
        {
          "internalType": "address",
          "name": "",
          "type": "address"
        }
      ],
      "stateMutability": "view",
      "type": "function"
    },
    {
      "inputs": [
        {
          "internalType": "uint256",
          "name": "eventId",
          "type": "uint256"
        }
      ],
      "name": "getEventDetails",
      "outputs": [
        {
          "components": [
            {
              "internalType": "uint256",
              "name": "eventId",
              "type": "uint256"
            },
            {
              "internalType": "address",
              "name": "organizer",
              "type": "address"
            },
            {
              "internalType": "string",
              "name": "name",
              "type": "string"
            },
            {
              "internalType": "string",
              "name": "description",
              "type": "string"
            },
            {
              "internalType": "string",
              "name": "imageCID",
              "type": "string"
            },
            {
              "internalType": "uint256",
              "name": "startTime",
              "type": "uint256"
            },
            {
              "internalType": "uint256",
              "name": "endTime",
              "type": "uint256"
            },
            {
              "internalType": "string",
              "name": "venueName",
              "type": "string"
            },
            {
              "internalType": "string",
              "name": "streetAddress",
              "type": "string"
            },
            {
              "internalType": "string",
              "name": "city",
              "type": "string"
            },
            {
              "internalType": "string",
              "name": "state",
              "type": "string"
            },
            {
              "internalType": "string",
              "name": "postalCode",
              "type": "string"
            },
            {
              "internalType": "string",
              "name": "country",
              "type": "string"
            },
            {
              "internalType": "bool",
              "name": "isOnline",
              "type": "bool"
            },
            {
              "internalType": "uint256",
              "name": "ticketPrice",
              "type": "uint256"
            },
            {
              "internalType": "uint256",
              "name": "maxAttendees",
              "type": "uint256"
            },
            {
              "internalType": "uint256",
              "name": "ticketsSold",
              "type": "uint256"
            },
            {
              "internalType": "enum MergedContract.EventStatus",
              "name": "status",
              "type": "uint8"
            },
            {
              "internalType": "bool",
              "name": "isPrivate",
              "type": "bool"
            }
          ],
          "internalType": "struct MergedContract.Event",
          "name": "",
          "type": "tuple"
        }
      ],
      "stateMutability": "view",
      "type": "function"
    },
    {
      "inputs": [
        {
          "internalType": "bytes32",
          "name": "hash1",
          "type": "bytes32"
        }
      ],
      "name": "getTicketsByUser",
      "outputs": [
        {
          "internalType": "uint256[]",
          "name": "",
          "type": "uint256[]"
        }
      ],
      "stateMutability": "view",
      "type": "function"
    },
    {
      "inputs": [
        {
          "internalType": "bytes32",
          "name": "hash1",
          "type": "bytes32"
        }
      ],
      "name": "getUserEvents",
      "outputs": [
        {
          "internalType": "uint256[]",
          "name": "",
          "type": "uint256[]"
        }
      ],
      "stateMutability": "view",
      "type": "function"
    },
    {
      "inputs": [
        {
          "internalType": "address",
          "name": "owner",
          "type": "address"
        },
        {
          "internalType": "address",
          "name": "operator",
          "type": "address"
        }
      ],
      "name": "isApprovedForAll",
      "outputs": [
        {
          "internalType": "bool",
          "name": "",
          "type": "bool"
        }
      ],
      "stateMutability": "view",
      "type": "function"
    },
    {
      "inputs": [],
      "name": "name",
      "outputs": [
        {
          "internalType": "string",
          "name": "",
          "type": "string"
        }
      ],
      "stateMutability": "view",
      "type": "function"
    },
    {
      "inputs": [
        {
          "internalType": "address",
          "name": "",
          "type": "address"
        },
        {
          "internalType": "uint256",
          "name": "",
          "type": "uint256"
        }
      ],
      "name": "organizerEvents",
      "outputs": [
        {
          "internalType": "uint256",
          "name": "",
          "type": "uint256"
        }
      ],
      "stateMutability": "view",
      "type": "function"
    },
    {
      "inputs": [],
      "name": "owner",
      "outputs": [
        {
          "internalType": "address",
          "name": "",
          "type": "address"
        }
      ],
      "stateMutability": "view",
      "type": "function"
    },
    {
      "inputs": [
        {
          "internalType": "uint256",
          "name": "tokenId",
          "type": "uint256"
        }
      ],
      "name": "ownerOf",
      "outputs": [
        {
          "internalType": "address",
          "name": "",
          "type": "address"
        }
      ],
      "stateMutability": "view",
      "type": "function"
    },
    {
      "inputs": [
        {
          "internalType": "bytes32",
          "name": "hash1",
          "type": "bytes32"
        },
        {
          "internalType": "bytes32",
          "name": "hash2",
          "type": "bytes32"
        },
        {
          "internalType": "uint256",
          "name": "eventId",
          "type": "uint256"
        }
      ],
      "name": "purchaseTicket",
      "outputs": [
        {
          "internalType": "uint256",
          "name": "",
          "type": "uint256"
        }
      ],
      "stateMutability": "payable",
      "type": "function"
    },
    {
      "inputs": [],
      "name": "renounceOwnership",
      "outputs": [],
      "stateMutability": "nonpayable",
      "type": "function"
    },
    {
      "inputs": [
        {
          "internalType": "address",
          "name": "from",
          "type": "address"
        },
        {
          "internalType": "address",
          "name": "to",
          "type": "address"
        },
        {
          "internalType": "uint256",
          "name": "tokenId",
          "type": "uint256"
        }
      ],
      "name": "safeTransferFrom",
      "outputs": [],
      "stateMutability": "nonpayable",
      "type": "function"
    },
    {
      "inputs": [
        {
          "internalType": "address",
          "name": "from",
          "type": "address"
        },
        {
          "internalType": "address",
          "name": "to",
          "type": "address"
        },
        {
          "internalType": "uint256",
          "name": "tokenId",
          "type": "uint256"
        },
        {
          "internalType": "bytes",
          "name": "data",
          "type": "bytes"
        }
      ],
      "name": "safeTransferFrom",
      "outputs": [],
      "stateMutability": "nonpayable",
      "type": "function"
    },
    {
      "inputs": [
        {
          "internalType": "address",
          "name": "operator",
          "type": "address"
        },
        {
          "internalType": "bool",
          "name": "approved",
          "type": "bool"
        }
      ],
      "name": "setApprovalForAll",
      "outputs": [],
      "stateMutability": "nonpayable",
      "type": "function"
    },
    {
      "inputs": [
        {
          "internalType": "bytes4",
          "name": "interfaceId",
          "type": "bytes4"
        }
      ],
      "name": "supportsInterface",
      "outputs": [
        {
          "internalType": "bool",
          "name": "",
          "type": "bool"
        }
      ],
      "stateMutability": "view",
      "type": "function"
    },
    {
      "inputs": [],
      "name": "symbol",
      "outputs": [
        {
          "internalType": "string",
          "name": "",
          "type": "string"
        }
      ],
      "stateMutability": "view",
      "type": "function"
    },
    {
      "inputs": [
        {
          "internalType": "bytes32",
          "name": "",
          "type": "bytes32"
        }
      ],
      "name": "ticketHashes",
      "outputs": [
        {
          "internalType": "uint256",
          "name": "",
          "type": "uint256"
        }
      ],
      "stateMutability": "view",
      "type": "function"
    },
    {
      "inputs": [
        {
          "internalType": "uint256",
          "name": "tokenId",
          "type": "uint256"
        }
      ],
      "name": "tokenURI",
      "outputs": [
        {
          "internalType": "string",
          "name": "",
          "type": "string"
        }
      ],
      "stateMutability": "view",
      "type": "function"
    },
    {
      "inputs": [
        {
          "internalType": "address",
          "name": "from",
          "type": "address"
        },
        {
          "internalType": "address",
          "name": "to",
          "type": "address"
        },
        {
          "internalType": "uint256",
          "name": "tokenId",
          "type": "uint256"
        }
      ],
      "name": "transferFrom",
      "outputs": [],
      "stateMutability": "nonpayable",
      "type": "function"
    },
    {
      "inputs": [
        {
          "internalType": "address",
          "name": "newOwner",
          "type": "address"
        }
      ],
      "name": "transferOwnership",
      "outputs": [],
      "stateMutability": "nonpayable",
      "type": "function"
    },
    {
      "inputs": [
        {
          "internalType": "bytes32",
          "name": "",
          "type": "bytes32"
        },
        {
          "internalType": "uint256",
          "name": "",
          "type": "uint256"
        }
      ],
      "name": "userEvents",
      "outputs": [
        {
          "internalType": "uint256",
          "name": "",
          "type": "uint256"
        }
      ],
      "stateMutability": "view",
      "type": "function"
    },
    {
      "inputs": [
        {
          "internalType": "bytes32",
          "name": "hash2",
          "type": "bytes32"
        }
      ],
      "name": "verifyTicket",
      "outputs": [
        {
          "internalType": "bool",
          "name": "",
          "type": "bool"
        },
        {
          "internalType": "uint256",
          "name": "",
          "type": "uint256"
        },
        {
          "internalType": "uint256",
          "name": "",
          "type": "uint256"
        }
      ],
      "stateMutability": "view",
      "type": "function"
    }
  ],
  "transactionHash": "0x474a2f4354c31fc30840e5bdf02f052f88212a649506c5baa026166f4600d7a8",
  "args": [],
  "numDeployments": 1,
  "solcInputHash": "daa590d0800951e78e8484cdbd7f1eea",
  "bytecode": "0x608034620003a6576001600160401b039060408181018381118382101762000390578152600b82526020926a115d995b9d151a58dad95d60aa1b848401528151908282018281108282111762000390578352600491828152631510d2d560e21b868201528451908282116200037b576000968754926001978885811c9516801562000370575b838610146200035d578190601f958681116200030a575b508390868311600114620002a6578b926200029a575b5050600019600383901b1c191690881b1788555b8151938411620002875786548781811c911680156200027c575b828210146200026957908184869594931162000212575b5080928411600114620001aa575087926200019e575b5050600019600383901b1c191690841b1783555b331562000189575060068054336001600160a01b03198216811790925591519390916001600160a01b0316907f8be0079c531659141344cd1fd0a4f28419497f9722a3daafe3b4186f6b6457e09080a38060075580600855600955612f519081620003ac8239f35b836024925191631e4fbdf760e01b8352820152fd5b0151905038806200010d565b9190879450601f198416858a52838a20938a905b828210620001f85750508411620001de575b505050811b01835562000121565b015160001960f88460031b161c19169055388080620001d0565b8484015186558a97909501949384019390810190620001be565b90919293508789528189208480870160051c8201928488106200025f575b9187968b92969594930160051c01915b82811062000250575050620000f7565b8b81558796508a910162000240565b9250819262000230565b634e487b7160e01b895260228652602489fd5b90607f1690620000e0565b634e487b7160e01b885260418552602488fd5b015190503880620000b2565b8b8052848c208b94509190601f1984168d5b87828210620002f35750508411620002d9575b505050811b018855620000c6565b015160001960f88460031b161c19169055388080620002cb565b8385015186558e97909501949384019301620002b8565b9091508a8052838b208680850160051c82019286861062000353575b918c91869594930160051c01915b828110620003445750506200009c565b8d81558594508c910162000334565b9250819262000326565b634e487b7160e01b8a526022875260248afd5b94607f169462000085565b604184634e487b7160e01b6000525260246000fd5b634e487b7160e01b600052604160045260246000fd5b600080fdfe61012080604052600436101561001457600080fd5b60003560e01c90816301ffc9a71461279e5750806306fdde03146126fb578063081812fc146126bd578063095ea7b3146125d65780630b791430146123be5780630e5f14eb1461238b57806319db8ecb14611ed157806322e6870314611ea557806323b872dd14611e8e57806335a1202214610fc15780633f69babd14610f0b57806342842e0e14610edd5780634d81c7b814610e6d5780636352211e14610e3d578063707090e114610db057806370a0823114610d57578063715018a614610cfa5780638da5cb5b14610cd157806395d89b4114610bf25780639b7aea7514610ae2578063a22cb46514610a34578063a476b73d14610721578063b88d4fde146106b4578063c87b56dd1461065d578063dc1f0df214610624578063e4aa47e3146105cc578063e985e9c514610576578063ec38d5a0146101ed5763f2fde38b1461015f57600080fd5b346101e85760203660031901126101e857610178612849565b610180612ac8565b6001600160a01b039081169081156101cf57600654826001600160601b0360a01b821617600655167f8be0079c531659141344cd1fd0a4f28419497f9722a3daafe3b4186f6b6457e0600080a3005b604051631e4fbdf760e01b815260006004820152602490fd5b600080fd5b346101e85760203660031901126101e857600061024060405161020f816128af565b82815282602082015260606040820152606080820152606060808201528260a08201528260c0820152606060e082015260606101008201526060610120820152606061014082015260606101608201526060610180820152826101a0820152826101c0820152826101e082015282610200820152826102208201520152600435600052600a60205260406000206011604051916102ab836128af565b8054835260018101546001600160a01b031660208401526102ce60028201612907565b60408401526102df60038201612907565b60608401526102f060048201612907565b6080840152600581015460a0840152600681015460c084015261031560078201612907565b60e084015261032660088201612907565b61010084015261033860098201612907565b61012084015261034a600a8201612907565b61014084015261035c600b8201612907565b61016084015261036e600c8201612907565b61018084015260ff600d8201541615156101a0840152600e8101546101c0840152600f8101546101e084015260108101546102008401520154600360ff82161015610560578060ff80921661022084015260081c16151561024082015280511561054e576040816102406104fb6104e36104cb6104b361049b61048361045861044261042c60609c6102608d519e8f9e8f93602085528051602086015260018060a01b036020820151168286015201519201526102808d0190612809565b60608b01518c8203601f190160808e0152612809565b60808a01518b8203601f190160a08d0152612809565b60a089015160c08b015260c089015160e08b015260e0890151601f198b8303016101008c0152612809565b610100880151898203601f19016101208b0152612809565b610120870151888203601f19016101408a0152612809565b610140860151878203601f1901610160890152612809565b610160850151868203601f1901610180880152612809565b610180840151858203601f19016101a0870152612809565b916101a081015115156101c08501526101c08101516101e08501526101e0810151610200850152610200810151610220850152610540610220820151838601906129ad565b015115156102608301520390f35b604051635add554360e01b8152600490fd5b634e487b7160e01b600052602160045260246000fd5b346101e85760403660031901126101e85761058f612849565b61059761285f565b9060018060a01b03809116600052600560205260406000209116600052602052602060ff604060002054166040519015158152f35b346101e85760403660031901126101e8576105e5612849565b6001600160a01b03166000908152600b60205260409020805460243591908210156101e85760209161061691612a9a565b90546040519160031b1c8152f35b346101e85760403660031901126101e8576024356004356000526010602052604060002080548210156101e85760209161061691612a9a565b346101e85760203660031901126101e857610679600435612ce9565b506000604051610688816128cb565b526106b0604051610698816128cb565b60008152604051918291602083526020830190612809565b0390f35b346101e85760803660031901126101e8576106cd612849565b6106d561285f565b90604435606435926001600160401b0384116101e857366023850112156101e85761070d61071f943690602481600401359101612a0a565b92610719838383612af4565b33612d54565b005b346101e8576020806003193601126101e85760043561073e612ec0565b61074781612ce9565b6001600160a01b0390811633148015610a08575b156109c35781600052600c83526040600020549283600052600a815260406000209182541561054e5760ff6011840154166003811015610560576002148080156109b0575b15610976576108fd575b836000526002825280604060002054166108b857600084918282526002845260408220541660028115948515610885575b848452526040822080546001600160a01b03191690557fddf252ad1be2c89b69c2b068fc378daa952ba7f163c4a11628f55a4df523b3ef8280a461086c5760100180548015610856576000190190557fd49cbb19e134836fb8334c1c39901390e9f1634db4705e3f7006fcb21d5d4fe5600080a36001600755005b634e487b7160e01b600052601160045260246000fd5b604051637e27328960e01b815260048101839052602490fd5b600085815260046020526040902080546001600160a01b03191690558284526003815260408420841981540190556107db565b60405162461bcd60e51b815260048101839052601c60248201527f5469636b65747320617265206e6f6e2d7472616e7366657261626c65000000006044820152606490fd5b8061090785612ce9565b166000808080600e8801948554905af161091f612d24565b50156109645785907f93c496f36ecab5f5583f216646cac3acb12a63aeacddb1a9251ceb81f0ee36e7848461095389612ce9565b9354936040519485521692a36107aa565b604051633c31275160e21b8152600490fd5b60405162461bcd60e51b815260048101849052601260248201527110d85b9b9bdd08189d5c9b881d1a58dad95d60721b6044820152606490fd5b50816109bb86612ce9565b1633146107a0565b60405162461bcd60e51b815260048101849052601b60248201527f4e6f7420746f6b656e206f776e6572206f7220617070726f76656400000000006044820152606490fd5b5080610a1383612ce9565b1660005260058352604060002033600052835260ff6040600020541661075b565b346101e85760403660031901126101e857610a4d612849565b60243590811515908183036101e8576001600160a01b0316918215610ac957610a9b9033600052600560205260406000208460005260205260406000209060ff801983541691151516179055565b6040519081527f17307eab39ab6107e8899845ad3d59bd9653f200f220920489ca2b5937696c3160203392a3005b604051630b61174360e31b815260048101849052602490fd5b346101e85760203660031901126101e85760043580600052600a602052604060002080541561054e576001810154336001600160a01b0391821614159081610be3575b50610bd157601181019081549060ff8216600381101561056057610bb857600601544210610b7d5760ff191660011790557fbb85ff95aded757cf3b840cc38e6e719a2915827f28e3364f62cbefa25bbe2de600080a2005b60405162461bcd60e51b8152602060048201526013602482015272115d995b9d081b9bdd081e595d08195b991959606a1b6044820152606490fd5b604051637b5d682f60e01b815260048101859052602490fd5b604051631a27eac360e11b8152600490fd5b90506006541633141583610b25565b346101e85760003660031901126101e85760405160006001805490610c1682612875565b80855291818116908115610caa5750600114610c51575b6106b084610c3d818603826128e6565b604051918291602083526020830190612809565b600081815292507fb10e2d527612073b26eecdfd717e6a320cf44b4afac2b0732d9fcbe2b7fa0cf65b828410610c92575050508101602001610c3d82610c2d565b80546020858701810191909152909301928101610c7a565b60ff191660208087019190915292151560051b85019092019250610c3d9150839050610c2d565b346101e85760003660031901126101e8576006546040516001600160a01b039091168152602090f35b346101e85760003660031901126101e857610d13612ac8565b600680546001600160a01b031981169091556000906001600160a01b03167f8be0079c531659141344cd1fd0a4f28419497f9722a3daafe3b4186f6b6457e08280a3005b346101e85760203660031901126101e8576001600160a01b03610d78612849565b168015610d975760005260036020526020604060002054604051908152f35b6040516322718ad960e21b815260006004820152602490fd5b346101e8576020806003193601126101e8576004358015610e2c5760005260108152604060002090604051908181845491828152019360005281600020916000905b828210610e15576106b085610e09818903826128e6565b60405191829182612a5f565b835486529485019460019384019390910190610df2565b6040516257c03760e51b8152600490fd5b346101e85760203660031901126101e8576020610e5b600435612ce9565b6040516001600160a01b039091168152f35b346101e8576020806003193601126101e8576004358015610e2c57600052600d8152604060002090604051908181845491828152019360005281600020916000905b828210610ec6576106b085610e09818903826128e6565b835486529485019460019384019390910190610eaf565b346101e85761071f610eee366129ba565b9060405192610efc846128cb565b60008452610719838383612af4565b346101e85760203660031901126101e85760043580600052600a602052604060002080541561054e576001810154336001600160a01b0391821614159081610fb2575b50610bd157601101805460ff8116600381101561056057610f995760ff191660021790557fdc3cb569b066460f4a22dffa05317bdcce5d3826382ed49a21f13e5fa2063d39600080a2005b604051637b5d682f60e01b815260048101849052602490fd5b90506006541633141583610f4e565b346101e8576101e03660031901126101e8576004356001600160401b0381116101e857610ff2903690600401612a41565b6024356001600160401b0381116101e857611011903690600401612a41565b6044356001600160401b0381116101e857611030903690600401612a41565b9160a4356001600160401b0381116101e857611050903690600401612a41565b60c4356001600160401b0381116101e85761106f903690600401612a41565b60e4356001600160401b0381116101e85761108e903690600401612a41565b610104356001600160401b0381116101e8576110ae903690600401612a41565b610124356001600160401b0381116101e8576110ce903690600401612a41565b90610144356001600160401b0381116101e8576110ef903690600401612a41565b92610164359485151586036101e8576101c4359687151588036101e857426064351115611e4a576064356084351115611dfb576101a43515611daa576009549a8b9a61113a8c612e77565b6009558a604080519e8f9061114e826128af565b8152336020820152015260608d015260808c015260643560a08c015260843560c08c015260e08b01526101008a015261012089015261014088015261016087015261018086015215156101a0850152610184356101c08501526101a4356101e085015260006102008501526000610220850152151561024084015281600052600a6020526040600020835181556001810160018060a01b036020860151166001600160601b0360a01b82541617905560408401518051906001600160401b0382116117145781906112226002850154612875565b601f8111611d57575b50602090601f8311600114611ce557600092611cda575b50508160011b916000199060031b1c19161760028201555b60608401518051906001600160401b03821161171457819061127f6003850154612875565b601f8111611c87575b50602090601f8311600114611c1557600092611c0a575b50508160011b916000199060031b1c19161760038201555b60808401518051906001600160401b0382116117145781906112dc6004850154612875565b601f8111611bb7575b50602090601f8311600114611b4557600092611b3a575b50508160011b916000199060031b1c19161760048201555b60a0840151600582015560c0840151600682015560e08401518051906001600160401b03821161171457819061134d6007850154612875565b601f8111611ae7575b50602090601f8311600114611a7557600092611a6a575b50508160011b916000199060031b1c19161760078201555b6101008401518051906001600160401b0382116117145781906113ab6008850154612875565b601f8111611a17575b50602090601f83116001146119a55760009261199a575b50508160011b916000199060031b1c19161760088201555b6101208401518051906001600160401b0382116117145781906114096009850154612875565b601f8111611947575b50602090601f83116001146118d5576000926118ca575b50508160011b916000199060031b1c19161760098201555b6101408401518051906001600160401b038211611714578190611467600a850154612875565b601f8111611877575b50602090601f8311600114611805576000926117fa575b50508160011b916000199060031b1c191617600a8201555b6101608401518051906001600160401b0382116117145781906114c5600b850154612875565b601f81116117a7575b50602090601f83116001146117355760009261172a575b50508160011b916000199060031b1c191617600b8201555b6101808401518051906001600160401b03821161171457611521600c840154612875565b601f81116116cd575b50602090601f831160011461165a5760119392916000918361164f575b50508160011b916000199060031b1c191617600c8201555b61157f6101a08601511515600d83019060ff801983541691151516179055565b6101c0850151600e8201556101e0850151600f82015561020085015160108201550161022084015160038110156105605760209460ff61ff006102408554930151151560081b1692169061ffff19161717905533600052600b83526115e8826040600020612e86565b817fb6a83ff9d6bbd62d96305d6eb336e501e42317b524fcca1b5ae9d5be9195812a61161f6040519360a0855260a0850190612809565b926064358682015260843560408201526101843560608201526101a43560808201528033940390a3604051908152f35b015190508780611547565b90600c840160005260206000209160005b601f19851681106116b5575091839160019360119695601f1981161061169c575b505050811b01600c82015561155f565b015160001960f88460031b161c1916905587808061168c565b9192602060018192868501518155019401920161166b565b600c84016000526020600020601f840160051c81016020851061170d575b601f830160051c8201811061170157505061152a565b600081556001016116eb565b50806116eb565b634e487b7160e01b600052604160045260246000fd5b0151905086806114e5565b9250600b84016000526020600020906000935b601f198416851061178c576001945083601f19811610611773575b505050811b01600b8201556114fd565b015160001960f88460031b161c19169055868080611763565b81810151835560209485019460019093019290910190611748565b909150600b84016000526020600020601f840160051c8101602085106117f3575b90849392915b601f830160051c820181106117e45750506114ce565b600081558594506001016117ce565b50806117c8565b015190508680611487565b9250600a84016000526020600020906000935b601f198416851061185c576001945083601f19811610611843575b505050811b01600a82015561149f565b015160001960f88460031b161c19169055868080611833565b81810151835560209485019460019093019290910190611818565b909150600a84016000526020600020601f840160051c8101602085106118c3575b90849392915b601f830160051c820181106118b4575050611470565b6000815585945060010161189e565b5080611898565b015190508680611429565b9250600984016000526020600020906000935b601f198416851061192c576001945083601f19811610611913575b505050811b016009820155611441565b015160001960f88460031b161c19169055868080611903565b818101518355602094850194600190930192909101906118e8565b909150600984016000526020600020601f840160051c810160208510611993575b90849392915b601f830160051c82018110611984575050611412565b6000815585945060010161196e565b5080611968565b0151905086806113cb565b9250600884016000526020600020906000935b601f19841685106119fc576001945083601f198116106119e3575b505050811b0160088201556113e3565b015160001960f88460031b161c191690558680806119d3565b818101518355602094850194600190930192909101906119b8565b909150600884016000526020600020601f840160051c810160208510611a63575b90849392915b601f830160051c82018110611a545750506113b4565b60008155859450600101611a3e565b5080611a38565b01519050868061136d565b9250600784016000526020600020906000935b601f1984168510611acc576001945083601f19811610611ab3575b505050811b016007820155611385565b015160001960f88460031b161c19169055868080611aa3565b81810151835560209485019460019093019290910190611a88565b909150600784016000526020600020601f840160051c810160208510611b33575b90849392915b601f830160051c82018110611b24575050611356565b60008155859450600101611b0e565b5080611b08565b0151905086806112fc565b9250600484016000526020600020906000935b601f1984168510611b9c576001945083601f19811610611b83575b505050811b016004820155611314565b015160001960f88460031b161c19169055868080611b73565b81810151835560209485019460019093019290910190611b58565b909150600484016000526020600020601f840160051c810160208510611c03575b90849392915b601f830160051c82018110611bf45750506112e5565b60008155859450600101611bde565b5080611bd8565b01519050868061129f565b9250600384016000526020600020906000935b601f1984168510611c6c576001945083601f19811610611c53575b505050811b0160038201556112b7565b015160001960f88460031b161c19169055868080611c43565b81810151835560209485019460019093019290910190611c28565b909150600384016000526020600020601f840160051c810160208510611cd3575b90849392915b601f830160051c82018110611cc4575050611288565b60008155859450600101611cae565b5080611ca8565b015190508680611242565b9250600284016000526020600020906000935b601f1984168510611d3c576001945083601f19811610611d23575b505050811b01600282015561125a565b015160001960f88460031b161c19169055868080611d13565b81810151835560209485019460019093019290910190611cf8565b909150600284016000526020600020601f840160051c810160208510611da3575b90849392915b601f830160051c82018110611d9457505061122b565b60008155859450600101611d7e565b5080611d78565b60405162461bcd60e51b8152602060048201526024808201527f4d617820617474656e64656573206d75737420626520677265617465722074686044820152630616e20360e41b6064820152608490fd5b60405162461bcd60e51b815260206004820152602160248201527f456e642074696d65206d7573742062652061667465722073746172742074696d6044820152606560f81b6064820152608490fd5b606460405162461bcd60e51b815260206004820152602060248201527f53746172742074696d65206d75737420626520696e20746865206675747572656044820152fd5b346101e85761071f611e9f366129ba565b91612af4565b346101e85760203660031901126101e85760043560005260116020526020604060002054604051908152f35b60603660031901126101e85760246044358135600435611eef612ec0565b82600052602093600a8552604060002082158015612383575b610e2c5780541561054e5760ff601182015416600381101561236e576123575760068101544210156123455760108101938454600f830154111561233357600e82015434036123215780600052600e875260ff6040600020541661230a5785600052600f8752604060002084600052875260ff6040600020541661230a5760085494611f9386612e77565b60085560405191611fa3836128cb565b6000835233156122f257600087815260028a5260409020546001600160a01b03939084166122ae578760005260028a52836040600020541688811515918261227b575b3360005260038d526040600020600181540190558160005260028d526040600020336001600160601b0360a01b82541617905533907fddf252ad1be2c89b69c2b068fc378daa952ba7f163c4a11628f55a4df523b3ef600080a461226357333b612170575b5060009384938493838b600f8e88978852600e8152604088209260ff19936001858254161790558852528d60408720908c88525260016040872091825416179055600d8d5261209d8b60408720612e86565b8a8552600c8d528b6040862055845260118c5289604085205588845260108c526120ca8b60408620612e86565b6120d48154612e77565b9055600134920154165af16120e7612d24565b5015612121575060405192827fd8c28ef8ff03d3bc186cdfd7c4f32a59066a225d81551660ffd4d63a7294ba9c600080a460016007558152f35b8460236084926040519262461bcd60e51b845260048401528201527f4661696c656420746f2073656e64207061796d656e7420746f206f7267616e696044820152623d32b960e91b6064820152fd5b946121b08a829b9a999897604051809381926000630a85bd0160e11b978885523360048601528401528c6044840152608060648401526084830190612809565b03816000335af160009181612223575b506121f1578a8a6121cf612d24565b805191826121ee57604051633250574960e11b81523360048201528490fd5b01fd5b63ffffffff60e09b9798999a9b1b160361220c57600061204b565b604051633250574960e11b81523360048201528590fd5b9091508a81813d831161225c575b61223b81836128e6565b810103126101e857516001600160e01b0319811681036101e857908c6121c0565b503d612231565b6040516339e3563760e11b8152600060048201528690fd5b60008281526004602052604080822080546001600160a01b031916905582825260038f5290208054600019019055611fe6565b60405162461bcd60e51b8152600481018b9052601c818801527f5469636b65747320617265206e6f6e2d7472616e7366657261626c65000000006044820152606490fd5b604051633250574960e11b8152600060048201528590fd5b90506040519063621b7acf60e01b82526004820152fd5b60405163cd1c886760e01b8152600490fd5b60405163171d80db60e11b8152600490fd5b604051630182a94160e61b8152600490fd5b50604051637b5d682f60e01b815260048101859052fd5b82634e487b7160e01b60005260216004526000fd5b508315611f08565b346101e85760203660031901126101e85760606123a9600435612ee3565b90604051921515835260208301526040820152f35b346101e85760203660031901126101e8576004356000908152600a60205260409020805460805260018101546001600160a01b03169061240060028201612907565b60e05261240f60038201612907565b9161241c60048301612907565b600583015460068401549061243360078601612907565b61243f60088701612907565b61244b60098801612907565b91612458600a8901612907565b93612465600b8a01612907565b95612472600c8b01612907565b97600d8b015460ff1660c052600e8b01549b600f8c01549a60108d01549c60110154610100526040518060a052608051905260a051602001526102608060a0516040015260a0510160e051906124c791612809565b60a05180820390606001526124db91612809565b60a05180820390608001526124ef91612809565b9160a05160a0015260a05160c0015260a0518082039060e0015261251291612809565b60a05180820390610100015261252791612809565b60a05180820390610120015261253c91612809565b60a05180820390610140015261255191612809565b60a05180820390610160015261256691612809565b60a05180820390610180015261257b91612809565b9260c051151560a0516101a0015260a0516101c0015260a0516101e0015260a051610200015260a051610220016101005160ff16906125b9916129ad565b6101005160081c60ff16151560a051610240015260a05180910390f35b346101e85760403660031901126101e8576125ef612849565b6024356125fb81612ce9565b331515806126aa575b8061267d575b612665576001600160a01b039283169282918491167f8c5be1e5ebec7d5bd14f71427d1e84f3dd0314c0f7b2291e5b200ac8c7c3b925600080a4600090815260046020526040902080546001600160a01b0319169091179055005b60405163a9fbf51f60e01b8152336004820152602490fd5b5060018060a01b038116600052600560205260406000203360005260205260ff604060002054161561260a565b506001600160a01b038116331415612604565b346101e85760203660031901126101e8576004356126da81612ce9565b506000526004602052602060018060a01b0360406000205416604051908152f35b346101e85760003660031901126101e8576040516000805461271c81612875565b80845290600190818116908115610caa5750600114612745576106b084610c3d818603826128e6565b600080805292507f290decd9548b62a8d60345a988386fc84ba6bc95484008f6362f93160ef3e5635b828410612786575050508101602001610c3d82610c2d565b8054602085870181019190915290930192810161276e565b346101e85760203660031901126101e8576004359063ffffffff60e01b82168092036101e8576020916380ac58cd60e01b81149081156127f8575b81156127e7575b5015158152f35b6301ffc9a760e01b149050836127e0565b635b5e139f60e01b811491506127d9565b919082519283825260005b848110612835575050826000602080949584010152601f8019910116010190565b602081830181015184830182015201612814565b600435906001600160a01b03821682036101e857565b602435906001600160a01b03821682036101e857565b90600182811c921680156128a5575b602083101461288f57565b634e487b7160e01b600052602260045260246000fd5b91607f1691612884565b61026081019081106001600160401b0382111761171457604052565b602081019081106001600160401b0382111761171457604052565b90601f801991011681019081106001600160401b0382111761171457604052565b906040519182600082549261291b84612875565b90818452600194858116908160001461298a5750600114612947575b5050612945925003836128e6565b565b9093915060005260209081600020936000915b81831061297257505061294593508201013880612937565b8554888401850152948501948794509183019161295a565b91505061294594506020925060ff191682840152151560051b8201013880612937565b9060038210156105605752565b60609060031901126101e8576001600160a01b039060043582811681036101e8579160243590811681036101e8579060443590565b6001600160401b03811161171457601f01601f191660200190565b929192612a16826129ef565b91612a2460405193846128e6565b8294818452818301116101e8578281602093846000960137010152565b9080601f830112156101e857816020612a5c93359101612a0a565b90565b6020908160408183019282815285518094520193019160005b828110612a86575050505090565b835185529381019392810192600101612a78565b8054821015612ab25760005260206000200190600090565b634e487b7160e01b600052603260045260246000fd5b6006546001600160a01b03163303612adc57565b60405163118cdaa760e01b8152336004820152602490fd5b6001600160a01b039182169290918315612cd05760009282845260209460028652604095838787205416612c8d579084918287526002815284888820541696879133151580612bf7575b509060027fddf252ad1be2c89b69c2b068fc378daa952ba7f163c4a11628f55a4df523b3ef9284612bc4575b858352600381528b8320805460010190558683525289812080546001600160a01b0319168517905580a41692838303612ba35750505050565b6064945051926364283d7b60e01b8452600484015260248301526044820152fd5b600087815260046020526040902080546001600160a01b0319169055848352600381528b83208054600019019055612b6a565b91939450915080612c4c575b15612c1357859291879138612b3e565b878688612c30576024915190637e27328960e01b82526004820152fd5b604491519063177e802f60e01b82523360048301526024820152fd5b503387148015612c71575b80612c035750858252600481523385898420541614612c03565b5086825260058152878220338352815260ff8883205416612c57565b60649087519062461bcd60e51b82526004820152601c60248201527f5469636b65747320617265206e6f6e2d7472616e7366657261626c65000000006044820152fd5b604051633250574960e11b815260006004820152602490fd5b6000818152600260205260409020546001600160a01b0316908115612d0c575090565b60249060405190637e27328960e01b82526004820152fd5b3d15612d4f573d90612d35826129ef565b91612d4360405193846128e6565b82523d6000602084013e565b606090565b9293823b612d64575b5050505050565b612da89060018060a01b038094169560405194859481630a85bd0160e11b988988521660048701521660248501526044840152608060648401526084830190612809565b03906020816000938185885af190829082612e28575b5050612df65782612dcd612d24565b8051919082612def57604051633250574960e11b815260048101839052602490fd5b9050602001fd5b6001600160e01b03191603612e1057503880808080612d5d565b60249060405190633250574960e11b82526004820152fd5b909192506020813d8211612e6f575b81612e44602093836128e6565b81010312612e6b5751906001600160e01b031982168203612e685750903880612dbe565b80fd5b5080fd5b3d9150612e37565b60001981146108565760010190565b80546801000000000000000081101561171457612ea891600182018155612a9a565b819291549060031b91821b91600019901b1916179055565b600260075414612ed1576002600755565b604051633ee5aeb560e01b8152600490fd5b908115610e2c57600091825260116020526040822054918215612f1357828152600c602052604090205460019291565b91508190819056fea2646970667358221220a62984aa08d911f818ae1a0bcf8324629efd845c551ea27aa9ffcd836b0c152864736f6c63430008140033",
  "devdoc": {
    "details": "Combines event creation and ticket issuance with privacy-preserving features",
    "errors": {
      "ERC721IncorrectOwner(address,uint256,address)": [
        {
          "details": "Indicates an error related to the ownership over a particular token. Used in transfers.",
          "params": {
            "owner": "Address of the current owner of a token.",
            "sender": "Address whose tokens are being transferred.",
            "tokenId": "Identifier number of a token."
          }
        }
      ],
      "ERC721InsufficientApproval(address,uint256)": [
        {
          "details": "Indicates a failure with the `operator`s approval. Used in transfers.",
          "params": {
            "operator": "Address that may be allowed to operate on tokens without being their owner.",
            "tokenId": "Identifier number of a token."
          }
        }
      ],
      "ERC721InvalidApprover(address)": [
        {
          "details": "Indicates a failure with the `approver` of a token to be approved. Used in approvals.",
          "params": {
            "approver": "Address initiating an approval operation."
          }
        }
      ],
      "ERC721InvalidOperator(address)": [
        {
          "details": "Indicates a failure with the `operator` to be approved. Used in approvals.",
          "params": {
            "operator": "Address that may be allowed to operate on tokens without being their owner."
          }
        }
      ],
      "ERC721InvalidOwner(address)": [
        {
          "details": "Indicates that an address can't be an owner. For example, `address(0)` is a forbidden owner in ERC-20. Used in balance queries.",
          "params": {
            "owner": "Address of the current owner of a token."
          }
        }
      ],
      "ERC721InvalidReceiver(address)": [
        {
          "details": "Indicates a failure with the token `receiver`. Used in transfers.",
          "params": {
            "receiver": "Address to which tokens are being transferred."
          }
        }
      ],
      "ERC721InvalidSender(address)": [
        {
          "details": "Indicates a failure with the token `sender`. Used in transfers.",
          "params": {
            "sender": "Address whose tokens are being transferred."
          }
        }
      ],
      "ERC721NonexistentToken(uint256)": [
        {
          "details": "Indicates a `tokenId` whose `owner` is the zero address.",
          "params": {
            "tokenId": "Identifier number of a token."
          }
        }
      ],
      "OwnableInvalidOwner(address)": [
        {
          "details": "The owner is not a valid owner account. (eg. `address(0)`)"
        }
      ],
      "OwnableUnauthorizedAccount(address)": [
        {
          "details": "The caller account is not authorized to perform an operation."
        }
      ],
      "ReentrancyGuardReentrantCall()": [
        {
          "details": "Unauthorized reentrant call."
        }
      ]
    },
    "events": {
      "Approval(address,address,uint256)": {
        "details": "Emitted when `owner` enables `approved` to manage the `tokenId` token."
      },
      "ApprovalForAll(address,address,bool)": {
        "details": "Emitted when `owner` enables or disables (`approved`) `operator` to manage all of its assets."
      },
      "Transfer(address,address,uint256)": {
        "details": "Emitted when `tokenId` token is transferred from `from` to `to`."
      }
    },
    "kind": "dev",
    "methods": {
      "approve(address,uint256)": {
        "details": "See {IERC721-approve}."
      },
      "balanceOf(address)": {
        "details": "See {IERC721-balanceOf}."
      },
      "burnTicket(uint256)": {
        "details": "Burns a ticket and issues refund if event is cancelled"
      },
      "cancelEvent(uint256)": {
        "details": "Cancels an event and enables refunds"
      },
      "completeEvent(uint256)": {
        "details": "Completes an event"
      },
      "createEvent(string,string,string,uint256,uint256,string,string,string,string,string,string,bool,uint256,uint256,bool)": {
        "details": "Creates a new event"
      },
      "getApproved(uint256)": {
        "details": "See {IERC721-getApproved}."
      },
      "isApprovedForAll(address,address)": {
        "details": "See {IERC721-isApprovedForAll}."
      },
      "name()": {
        "details": "See {IERC721Metadata-name}."
      },
      "owner()": {
        "details": "Returns the address of the current owner."
      },
      "ownerOf(uint256)": {
        "details": "See {IERC721-ownerOf}."
      },
      "purchaseTicket(bytes32,bytes32,uint256)": {
        "details": "Issues a new ticket NFT with payment"
      },
      "renounceOwnership()": {
        "details": "Leaves the contract without owner. It will not be possible to call `onlyOwner` functions. Can only be called by the current owner. NOTE: Renouncing ownership will leave the contract without an owner, thereby disabling any functionality that is only available to the owner."
      },
      "safeTransferFrom(address,address,uint256)": {
        "details": "See {IERC721-safeTransferFrom}."
      },
      "safeTransferFrom(address,address,uint256,bytes)": {
        "details": "See {IERC721-safeTransferFrom}."
      },
      "setApprovalForAll(address,bool)": {
        "details": "See {IERC721-setApprovalForAll}."
      },
      "supportsInterface(bytes4)": {
        "details": "See {IERC165-supportsInterface}."
      },
      "symbol()": {
        "details": "See {IERC721Metadata-symbol}."
      },
      "tokenURI(uint256)": {
        "details": "See {IERC721Metadata-tokenURI}."
      },
      "transferFrom(address,address,uint256)": {
        "details": "See {IERC721-transferFrom}."
      },
      "transferOwnership(address)": {
        "details": "Transfers ownership of the contract to a new account (`newOwner`). Can only be called by the current owner."
      }
    },
    "title": "MergedContract",
    "version": 1
  },
  "userdoc": {
    "kind": "user",
    "methods": {},
    "version": 1
  },
  "storageLayout": {
    "storage": [
      {
        "astId": 317,
        "contract": "contracts/MergedContract.sol:MergedContract",
        "label": "_name",
        "offset": 0,
        "slot": "0",
        "type": "t_string_storage"
      },
      {
        "astId": 319,
        "contract": "contracts/MergedContract.sol:MergedContract",
        "label": "_symbol",
        "offset": 0,
        "slot": "1",
        "type": "t_string_storage"
      },
      {
        "astId": 323,
        "contract": "contracts/MergedContract.sol:MergedContract",
        "label": "_owners",
        "offset": 0,
        "slot": "2",
        "type": "t_mapping(t_uint256,t_address)"
      },
      {
        "astId": 327,
        "contract": "contracts/MergedContract.sol:MergedContract",
        "label": "_balances",
        "offset": 0,
        "slot": "3",
        "type": "t_mapping(t_address,t_uint256)"
      },
      {
        "astId": 331,
        "contract": "contracts/MergedContract.sol:MergedContract",
        "label": "_tokenApprovals",
        "offset": 0,
        "slot": "4",
        "type": "t_mapping(t_uint256,t_address)"
      },
      {
        "astId": 337,
        "contract": "contracts/MergedContract.sol:MergedContract",
        "label": "_operatorApprovals",
        "offset": 0,
        "slot": "5",
        "type": "t_mapping(t_address,t_mapping(t_address,t_bool))"
      },
      {
        "astId": 8,
        "contract": "contracts/MergedContract.sol:MergedContract",
        "label": "_owner",
        "offset": 0,
        "slot": "6",
        "type": "t_address"
      },
      {
        "astId": 1574,
        "contract": "contracts/MergedContract.sol:MergedContract",
        "label": "_status",
        "offset": 0,
        "slot": "7",
        "type": "t_uint256"
      },
      {
        "astId": 6259,
        "contract": "contracts/MergedContract.sol:MergedContract",
        "label": "_nextTokenId",
        "offset": 0,
        "slot": "8",
        "type": "t_uint256"
      },
      {
        "astId": 6261,
        "contract": "contracts/MergedContract.sol:MergedContract",
        "label": "_nextEventId",
        "offset": 0,
        "slot": "9",
        "type": "t_uint256"
      },
      {
        "astId": 6310,
        "contract": "contracts/MergedContract.sol:MergedContract",
        "label": "events",
        "offset": 0,
        "slot": "10",
        "type": "t_mapping(t_uint256,t_struct(Event)6305_storage)"
      },
      {
        "astId": 6315,
        "contract": "contracts/MergedContract.sol:MergedContract",
        "label": "organizerEvents",
        "offset": 0,
        "slot": "11",
        "type": "t_mapping(t_address,t_array(t_uint256)dyn_storage)"
      },
      {
        "astId": 6319,
        "contract": "contracts/MergedContract.sol:MergedContract",
        "label": "ticketToEvent",
        "offset": 0,
        "slot": "12",
        "type": "t_mapping(t_uint256,t_uint256)"
      },
      {
        "astId": 6324,
        "contract": "contracts/MergedContract.sol:MergedContract",
        "label": "userTickets",
        "offset": 0,
        "slot": "13",
        "type": "t_mapping(t_bytes32,t_array(t_uint256)dyn_storage)"
      },
      {
        "astId": 6328,
        "contract": "contracts/MergedContract.sol:MergedContract",
        "label": "ticketExists",
        "offset": 0,
        "slot": "14",
        "type": "t_mapping(t_bytes32,t_bool)"
      },
      {
        "astId": 6334,
        "contract": "contracts/MergedContract.sol:MergedContract",
        "label": "eventTickets",
        "offset": 0,
        "slot": "15",
        "type": "t_mapping(t_uint256,t_mapping(t_bytes32,t_bool))"
      },
      {
        "astId": 6339,
        "contract": "contracts/MergedContract.sol:MergedContract",
        "label": "userEvents",
        "offset": 0,
        "slot": "16",
        "type": "t_mapping(t_bytes32,t_array(t_uint256)dyn_storage)"
      },
      {
        "astId": 6343,
        "contract": "contracts/MergedContract.sol:MergedContract",
        "label": "ticketHashes",
        "offset": 0,
        "slot": "17",
        "type": "t_mapping(t_bytes32,t_uint256)"
      }
    ],
    "types": {
      "t_address": {
        "encoding": "inplace",
        "label": "address",
        "numberOfBytes": "20"
      },
      "t_array(t_uint256)dyn_storage": {
        "base": "t_uint256",
        "encoding": "dynamic_array",
        "label": "uint256[]",
        "numberOfBytes": "32"
      },
      "t_bool": {
        "encoding": "inplace",
        "label": "bool",
        "numberOfBytes": "1"
      },
      "t_bytes32": {
        "encoding": "inplace",
        "label": "bytes32",
        "numberOfBytes": "32"
      },
      "t_enum(EventStatus)6265": {
        "encoding": "inplace",
        "label": "enum MergedContract.EventStatus",
        "numberOfBytes": "1"
      },
      "t_mapping(t_address,t_array(t_uint256)dyn_storage)": {
        "encoding": "mapping",
        "key": "t_address",
        "label": "mapping(address => uint256[])",
        "numberOfBytes": "32",
        "value": "t_array(t_uint256)dyn_storage"
      },
      "t_mapping(t_address,t_bool)": {
        "encoding": "mapping",
        "key": "t_address",
        "label": "mapping(address => bool)",
        "numberOfBytes": "32",
        "value": "t_bool"
      },
      "t_mapping(t_address,t_mapping(t_address,t_bool))": {
        "encoding": "mapping",
        "key": "t_address",
        "label": "mapping(address => mapping(address => bool))",
        "numberOfBytes": "32",
        "value": "t_mapping(t_address,t_bool)"
      },
      "t_mapping(t_address,t_uint256)": {
        "encoding": "mapping",
        "key": "t_address",
        "label": "mapping(address => uint256)",
        "numberOfBytes": "32",
        "value": "t_uint256"
      },
      "t_mapping(t_bytes32,t_array(t_uint256)dyn_storage)": {
        "encoding": "mapping",
        "key": "t_bytes32",
        "label": "mapping(bytes32 => uint256[])",
        "numberOfBytes": "32",
        "value": "t_array(t_uint256)dyn_storage"
      },
      "t_mapping(t_bytes32,t_bool)": {
        "encoding": "mapping",
        "key": "t_bytes32",
        "label": "mapping(bytes32 => bool)",
        "numberOfBytes": "32",
        "value": "t_bool"
      },
      "t_mapping(t_bytes32,t_uint256)": {
        "encoding": "mapping",
        "key": "t_bytes32",
        "label": "mapping(bytes32 => uint256)",
        "numberOfBytes": "32",
        "value": "t_uint256"
      },
      "t_mapping(t_uint256,t_address)": {
        "encoding": "mapping",
        "key": "t_uint256",
        "label": "mapping(uint256 => address)",
        "numberOfBytes": "32",
        "value": "t_address"
      },
      "t_mapping(t_uint256,t_mapping(t_bytes32,t_bool))": {
        "encoding": "mapping",
        "key": "t_uint256",
        "label": "mapping(uint256 => mapping(bytes32 => bool))",
        "numberOfBytes": "32",
        "value": "t_mapping(t_bytes32,t_bool)"
      },
      "t_mapping(t_uint256,t_struct(Event)6305_storage)": {
        "encoding": "mapping",
        "key": "t_uint256",
        "label": "mapping(uint256 => struct MergedContract.Event)",
        "numberOfBytes": "32",
        "value": "t_struct(Event)6305_storage"
      },
      "t_mapping(t_uint256,t_uint256)": {
        "encoding": "mapping",
        "key": "t_uint256",
        "label": "mapping(uint256 => uint256)",
        "numberOfBytes": "32",
        "value": "t_uint256"
      },
      "t_string_storage": {
        "encoding": "bytes",
        "label": "string",
        "numberOfBytes": "32"
      },
      "t_struct(Event)6305_storage": {
        "encoding": "inplace",
        "label": "struct MergedContract.Event",
        "members": [
          {
            "astId": 6267,
            "contract": "contracts/MergedContract.sol:MergedContract",
            "label": "eventId",
            "offset": 0,
            "slot": "0",
            "type": "t_uint256"
          },
          {
            "astId": 6269,
            "contract": "contracts/MergedContract.sol:MergedContract",
            "label": "organizer",
            "offset": 0,
            "slot": "1",
            "type": "t_address"
          },
          {
            "astId": 6271,
            "contract": "contracts/MergedContract.sol:MergedContract",
            "label": "name",
            "offset": 0,
            "slot": "2",
            "type": "t_string_storage"
          },
          {
            "astId": 6273,
            "contract": "contracts/MergedContract.sol:MergedContract",
            "label": "description",
            "offset": 0,
            "slot": "3",
            "type": "t_string_storage"
          },
          {
            "astId": 6275,
            "contract": "contracts/MergedContract.sol:MergedContract",
            "label": "imageCID",
            "offset": 0,
            "slot": "4",
            "type": "t_string_storage"
          },
          {
            "astId": 6277,
            "contract": "contracts/MergedContract.sol:MergedContract",
            "label": "startTime",
            "offset": 0,
            "slot": "5",
            "type": "t_uint256"
          },
          {
            "astId": 6279,
            "contract": "contracts/MergedContract.sol:MergedContract",
            "label": "endTime",
            "offset": 0,
            "slot": "6",
            "type": "t_uint256"
          },
          {
            "astId": 6281,
            "contract": "contracts/MergedContract.sol:MergedContract",
            "label": "venueName",
            "offset": 0,
            "slot": "7",
            "type": "t_string_storage"
          },
          {
            "astId": 6283,
            "contract": "contracts/MergedContract.sol:MergedContract",
            "label": "streetAddress",
            "offset": 0,
            "slot": "8",
            "type": "t_string_storage"
          },
          {
            "astId": 6285,
            "contract": "contracts/MergedContract.sol:MergedContract",
            "label": "city",
            "offset": 0,
            "slot": "9",
            "type": "t_string_storage"
          },
          {
            "astId": 6287,
            "contract": "contracts/MergedContract.sol:MergedContract",
            "label": "state",
            "offset": 0,
            "slot": "10",
            "type": "t_string_storage"
          },
          {
            "astId": 6289,
            "contract": "contracts/MergedContract.sol:MergedContract",
            "label": "postalCode",
            "offset": 0,
            "slot": "11",
            "type": "t_string_storage"
          },
          {
            "astId": 6291,
            "contract": "contracts/MergedContract.sol:MergedContract",
            "label": "country",
            "offset": 0,
            "slot": "12",
            "type": "t_string_storage"
          },
          {
            "astId": 6293,
            "contract": "contracts/MergedContract.sol:MergedContract",
            "label": "isOnline",
            "offset": 0,
            "slot": "13",
            "type": "t_bool"
          },
          {
            "astId": 6295,
            "contract": "contracts/MergedContract.sol:MergedContract",
            "label": "ticketPrice",
            "offset": 0,
            "slot": "14",
            "type": "t_uint256"
          },
          {
            "astId": 6297,
            "contract": "contracts/MergedContract.sol:MergedContract",
            "label": "maxAttendees",
            "offset": 0,
            "slot": "15",
            "type": "t_uint256"
          },
          {
            "astId": 6299,
            "contract": "contracts/MergedContract.sol:MergedContract",
            "label": "ticketsSold",
            "offset": 0,
            "slot": "16",
            "type": "t_uint256"
          },
          {
            "astId": 6302,
            "contract": "contracts/MergedContract.sol:MergedContract",
            "label": "status",
            "offset": 0,
            "slot": "17",
            "type": "t_enum(EventStatus)6265"
          },
          {
            "astId": 6304,
            "contract": "contracts/MergedContract.sol:MergedContract",
            "label": "isPrivate",
            "offset": 1,
            "slot": "17",
            "type": "t_bool"
          }
        ],
        "numberOfBytes": "576"
      },
      "t_uint256": {
        "encoding": "inplace",
        "label": "uint256",
        "numberOfBytes": "32"
      }
    }
  }
}